:020000040000FA
:10000000F47F062089010100C10101006986010019
:10001000BD010100BD010100BD010100BD010100E4
:10002000000000000000000000000000C901010005
:10003000BD01010000000000CD010100D10101005F
:10004000D5010100D9010100DD010100E10101003C
:10005000E5010100E9010100ED010100F1010100EC
:10006000F5010100F9010100FD010100010201009B
:1000700005020100090201000D0201001102010048
:1000800015020100317F0100397F0100417F01002D
:10009000497F0100517F0100597F0100617F01000C
:1000A000697F0100717F0100797F0100817F01007C
:1000B000897F0100490201004D0201005102010047
:1000C00055020100590201005D02010061020100B8
:1000D00065020100690201006D020100199A010028
:1000E000A59A0100790201007D0201008102010050
:1000F00085020100890201008D02010091020100C8
:1001000095020100990201009D020100A102010077
:10011000A5020100B5AF0100AD020100B10201006E
:10012000B5020100B9020100BD020100C1020100D7
:10013000C5020100C9020100CD020100D102010087
:10014000D5020100D9020100DD020100E102010037
:10015000E5020100E9020100ED020100F1020100E7
:10016000F5020100F9020100FD0201000103010096
:1001700005030100090301000D0301001103010043
:1001800015030100190301001D03010021030100F3
:1001900025030100290301002D03010031030100A3
:1001A00035030100390301003D0301004103010053
:1001B00045030100490301004D0301005103010003
:1001C00055030100590301005D03010061030100B3
:1001D00065030100690301006D0301007103010063
:1001E00075030100790301007D0301008103010013
:1001F00085030100890301008D03010091030100C3
:1002000095030100990301009D030100A103010072
:10021000A5030100A9030100AD030100B103010022
:10022000B5030100B9030100BD030100C1030100D2
:10023000C5030100C9030100CD030100D103010082
:10024000D5030100D9030100DD030100E103010032
:10025000E5030100E9030100ED030100F1030100E2
:10026000F5030100F9030100FD0301000104010091
:1002700005040100090401000D040100110401003E
:1002800015040100190401001D04010021040100EE
:1002900025040100290401002D040100310401009E
:1002A00035040100390401003D040100410401004E
:1002B000000000000000000000000000000000003E
:1002C000000000000000000000000000000000002E
:1002D000000000000000000000000000000000001E
:1002E000000000000000000000000000000000000E
:020000040001F9
:1000000000F002F800F0AFF80AA090E8000C82447B
:100010008344AAF10107DA4501D100F0A4F8AFF258
:10002000090EBAE80F0013F0010F18BFFB1A43F0D6
:1000300001031847F85A0600285B06000A4410F826
:10004000014B14F00F0508BF10F8015B240908BF2D
:1000500010F8014B6D1E05D010F8013B6D1E01F824
:10006000013BF9D1641E03D0641E01F8015BFBD192
:100070009142E4D3704700000023002400250026AD
:10008000103A28BF78C1FBD8520728BF30C148BFFB
:100090000B6070476E2900F0D586702901F0198039
:1000A000662924F0D785652924F0D485672924F0B2
:1000B000D185612924F0D08503681B0A28BF41F04F
:1000C0008001692900F08286642900F07F86752905
:1000D00000F07C866F2900F0A787782900F0E5877B
:1000E000E92900F04187E42900F03E87F52900F076
:1000F0003B87EF2900F0A487F82900F0E487036824
:10010000DB0928BF41F08001632901F06F85732965
:1001100001F07485E32901F07F85F32901F08485DE
:10012000002070471FB524F0FDFB0A480A4900F083
:10013000A9FD01F055F904000020002122F04CFF38
:10014000401C60600020002122F05CFFE06000F0B5
:100150005DFD1FBD9C5506209C67062010B5002044
:1001600001F08AFD10BDDFF810D0FFF7DBFF1FF0B4
:10017000F3FE01F0DAFE0000F47F062003B4FFF77F
:10018000EDFF03BC00F054FD72B60748074901605B
:100190000A6882F30888064880F30A880548804781
:1001A00062B605480047000008ED00E000000000CE
:1001B000F46D062065B7010001000100FFF7FEBFE6
:1001C000A0480047A0480047A0480047A048004773
:1001D000A0480047A0480047A0480047A048004763
:1001E000A0480047A0480047A0480047A048004753
:1001F000A0480047A0480047A0480047A048004743
:10044000A0480047C101010069860100C9010100FF
:10045000CD010100D1010100BD01010001710100C8
:1004600039710100417101004971010051710100B0
:100470005971010061710100697101007171010020
:1004800079710100097101001171010019710100F8
:10049000217101002971010031710100BD010100CC
:1004A000BD010100BD010100BD010100BD01010050
:1004B000BD010100BD010100BD010100BD01010040
:1004C000BD010100BD010100BD010100BD01010030
:1004D000BD010100A93501000D360100BD0101007B
:1004E000713601002D9801008D980100ED980100F2
:1004F00051990100B5990100419A0100CD9A01007E
:10050000319B0100959B0100F99B0100BD01010099
:10051000BD010100BD010100BD010100BD010100DF
:10052000BD010100BD010100BD010100BD010100CF
:10053000BD010100D536010039370100BD010100C0
:10054000BD010100BD010100BD01010075B8010040
:10055000BD010100BD010100BD010100BD0101009F
:10056000BD010100BD010100BD010100BD0101008F
:1005700075AD0100BD010100BD010100BD0101001B
:10058000BD010100BD010100BD010100817101003B
:10059000B9710100C1710100C9710100D17101007F
:1005A000D9710100E1710100E9710100F1710100EF
:1005B000F9710100897101009171010099710100C7
:1005C000A1710100A9710100B1710100BD0101001B
:1005D000BD010100BD010100BD010100BD0101001F
:1005E000BD010100BD010100BD010100BD0101000F
:1005F000BD010100BD010100BD010100E17C010060
:10060000BD010100BD010100BD010100BD010100EE
:10061000BD010100BD010100BD010100BD010100DE
:10062000BD010100BD010100BD010100BD010100CE
:10063000BD010100BD010100BD010100BD010100BE
:10064000BD010100BD010100BD010100BD010100AE
:10065000BD010100BD010100BD010100BD0101009E
:10066000BD010100BD010100BD010100BD0101008E
:10067000BD010100BD010100BD010100BD0101007E
:10068000BD010100BD010100BD010100BD0101006E
:10069000BD010100BD010100BD010100BD0101005E
:1006A000BD010100BD010100BD010100BD0101004E
:1006B000BD010100BD010100BD010100BD0101003E
:1006C000BD010100BD0101000048704780480320C2
:1006D00070B5064600F0BAFA056806F10B0020F086
:1006E0000704B4429CBF002070BD2B466A68BAB1B3
:1006F0001068A04210D304F1080188423CBF506842
:10070000586007D35168101941601168091B0160D6
:1007100058601460101D70BD13465268002AE7D15E
:100720002146284600F09AFA0028DED170BD70B547
:100730000446051F00F08AFA0068002C14BF4468C4
:1007400070BD002C18BFAC423CBF20466468F8D393
:1007500001680A18AA4218BF456003D12A680546F5
:100760001144016028684119A1421CBF6C6070BD32
:100770006168696021680844286070BD2DE9F04710
:1007800091460C46804600F061FA0768604234EA00
:10079000000001D1042C02D20520BDE8F087601EC4
:1007A00040F0070609F10B0020F007054D4539D947
:1007B0003B467A6882B31468101D404206EA000C7A
:1007C000644525D9A4EB0C00854221D8BCF1000F6B
:1007D0000BD0104601686244A1EB0C011160416826
:1007E0005160C0F800C058600346116805F1080068
:1007F000814205D35019491B0160156058600346BA
:1008000052F8040F58600020C8F80020BDE8F087B7
:1008100013465268002ACED12946384600F01EFA07
:100820000028C5D10620BDE8F08753EA020C00F08D
:1008300069802DE9F04B4FF00006002B1FBFB3FA83
:1008400083F503FA05F424FA05F65E4012BF164359
:10085000B2FA82F502FA05F4C5F120051EBF22FAAC
:1008600005FC44EA0C04203556EA044C4FEA1444D3
:1008700018BF641C4FF000084FF00009904271EB64
:10088000030C39D3002919BFB1FA81F701FA07F631
:10089000B0FA80F700FA07F6C7F120071EBF20FA6A
:1008A00007FC46EA0C062037B6FBF4FCA7EB05076D
:1008B000103F07F01F0BCBF120062CFA06F60CFABE
:1008C0000BFB44BFB3460026202FA4BF5E464FF06B
:1008D000000B5BEA060C08BF4FF0010B19EB0B098C
:1008E00048EB0608ABFB027C06FB02CC0BFB03CCFF
:1008F000C01B71EB0C01C1E70B460246414648465E
:10090000BDE8F08B13B5084318BF4FF0FF30014628
:10091000AFF30080BDE81C40704700007CB51D4669
:1009200016460C00009007D04142A14202D3204459
:10093000401E01E04FF0FF30064B7B442A466946DB
:100940000190304600F097FA002C02D0009A002166
:1009500011707CBD5F05000010B5002000F09FFC09
:10096000FFF7FCFBBDE81040012000F061B90B4629
:100970000146184600F07CBC40EA010310B59B0715
:100980000FD1042A0DD310C808C9121F9C42F8D0F9
:1009900020BA19BA884201D9012010BD4FF0FF30AA
:1009A00010BD1AB1D30703D0521C07E0002010BDC0
:1009B00010F8013B11F8014B1B1B07D110F8013B4C
:1009C00011F8014B1B1B01D1921EF1D1184610BD2D
:1009D00010B5431C02E010F8011B71B18107FAD178
:1009E0004FF0013202C88C1A8C4314EAC211F9D0BC
:1009F000C01A0A0603D0C01E10BDC01A10BD0A04DA
:100A000001D0801E10BD0902FCD0401E10BD40EA7E
:100A1000010370B59B072ED14FF00136042A2AD36B
:100A200008C810C99D1B9D43121F15EAC61517D093
:100A3000D8B2E1B2401A50EA056110D198B2A1B221
:100A4000401A50EA05410AD123F07F4024F07F414B
:100A5000401A50EA052102D1180EA0EB146070BDB7
:100A6000A342DBD018BA21BA884201D9012070BD57
:100A70004FF0FF3070BD0AB9002070BD10F8013B87
:100A800011F8014B63B1A3420AD1521E08D010F8ED
:100A9000013B11F8014B1BB1A34201D1521EEDD114
:100AA000181B70BD01B500F001FC01BD431A28BF41
:100AB0009A4240F240841044114410F0030F1EBFCC
:100AC00011F8013D521E00F8013D10F0030F7FF4B4
:100AD000F6AF103AC0F00A8010B531E9185020E99D
:100AE0001850103ABFF4F9AFBDE81040530724BFC7
:100AF00031E9081020E9081044BF51F8043D40F8DE
:100B0000043D12F0030F08BF7047D20728BF31F829
:100B1000023D48BF11F8012C28BF20F8023D48BF14
:100B200000F8012C704701B501F0FF03114643EABC
:100B3000032242EA024200F032FC01BD4FF0000203
:100B400000B5134694469646203922BFA0E80C50C3
:100B5000A0E80C50B1F12001BFF4F7AF090728BF9E
:100B6000A0E80C5048BF0CC05DF804EB890028BF1A
:100B700040F8042B08BF704748BF20F8022B11F043
:100B8000804F18BF00F8012B7047000000000000E4
:100B900030B44FF0013C50F8042B51F8043BCCFA30
:100BA00052F4D51A20D1FCB950F8042B51F8043B6B
:100BB000CCFA52F4D51A17D1B4B950F8042B51F825
:100BC000043BCCFA52F4D51A0ED16CB950F8042B70
:100BD00051F8043BCCFA52F4D51A05D1002CDAD0E6
:100BE00030BC4FF00000704729BAB1FA81F111F022
:100BF0001801D1F120008440F2D1CA40CB4012F05C
:100C0000FF0213F0FF0330BCD01A704770B5064CDA
:100C10007C44064D7D4404E020460168084480473A
:100C2000241DAC42F8D170BD74500600745006000B
:100C300001491820ABBEFEE72600020010B500F007
:100C4000CFFB001D10BD00BF91230200004870477C
:100C500088480320704770477047704738B504468E
:100C60000A4600206946AFF30080002808BF38BD5F
:100C700002460099204600F0BBFB012038BD012050
:100C800001F038B8F8B5AFF30080054600200C46F7
:100C9000102000BF0646A819A0420DD93246694669
:100CA0000020AFF30080070008BF01F023F8009890
:100CB000A04218BF0546C419FFF7C8FF05600746E4
:100CC000F01D20F007004619284600F00AF8B4424B
:100CD00008BFF8BDA21B31463868BDE8F84000F0F7
:100CE00087BB00210160C0E90110704710207047E8
:100CF00010B5FFF7E9FC006810BD10B50446FFF71A
:100D0000E3FC046010BD70B5044685690068C10647
:100D100001D5302600E02026C00707D070BDD4E9F9
:100D2000012130469047206A401C20626D1EF6D596
:100D300070BD70B5044685690078C00707D170BDE5
:100D4000D4E9012120209047206A401C20626D1EBA
:100D5000F6D570BD09684A0501D540B27047C9058E
:100D6000FCD500B2704709684A0501D5C0B270478A
:100D7000C905FCD580B2704770B50C460546012AFE
:100D800005D02878800600D5EA69002302E0012317
:100D900005E05B1C934202D2E05C0028F9D1A8690F
:100DA000E618C01AA861286A184428622846FFF786
:100DB000AAFF04E0D5E9012114F8010B9047B442E1
:100DC000F8D32846FFF7B5FF70BD00002DE9F041CC
:100DD0000646002410687529314616A510D0FFF785
:100DE000B9FF002802DA404213A507E031688A07FC
:100DF00001D512A502E0490704D511A5012401E09F
:100E0000FFF7B1FF00210A2206F1240709E0B0FB39
:100E1000F2FCB0FBF2F302FB1C00303078541846B1
:100E2000491C0028F3D123462A463046BDE8F0414C
:100E300000F056BB000000002D0000002B00000059
:100E40002000000011680268006A530501D508708F
:100E50000AE0D30501D5088006E0130603D5C217C2
:100E6000C1E9000200E008600120704701694A1CE6
:100E700002610878704700B58FB0CDE901310021DB
:100E8000059105497944CDE903101146684600F003
:100E90002BF90FB000BD0000E5FFFFFFD1E90023F3
:100EA0009A4202D2531C0B60107070472DE9FF5F0D
:100EB00015468A460446DFF8AC80F8440027D8E996
:100EC00000103E46CDE9001010E05AF826106A46A0
:100ED00002A800F0ADFE411C07D02178890603D599
:100EE000E269391891420DD80744761C20788006B3
:100EF00002D5E069B84205DDAE42E6DB5AF82600CD
:100F00000028E2D1A069C01BA0612046FFF7FBFECC
:100F1000D8E90010CDE90010002017E05AF8281099
:100F20006A4602A800F084FEB0F1FF3F81460BD074
:100F300000250DF1080B05E0D4E901211BF805009F
:100F400090476D1C4D45F7D308F10100B042804633
:100F5000E4DB206A384420622046FFF7EAFEBDE861
:100F6000FF9F0000FE3E02002DE9F0418046D21DA9
:100F700022F007020025D2E90002F52915A614D0B7
:100F8000011E72F1000106DA0023D0EB030063EBCF
:100F9000020211A608E0D8F800108B0701D50FA6B1
:100FA00002E0490701D50EA601251146002408F1EB
:100FB000240704E000F036FA30323A55641C50EA57
:100FC0000102F7D12B46324621464046BDE8F041AA
:100FD00000F086BA000000002D0000002B00000089
:100FE0002000000030B4002100F1240408E002F0E9
:100FF0000705D208303542EA4372DB086554491CC4
:1010000052EA0305F3D10468002310A2250708D58E
:1010100004F020040C4304D0C46901230CA2641E14
:10102000C46130BC00F05CBA10B5044621461068BB
:10103000FFF799FE02462046BDE810400023D1E7A5
:10104000D21D22F00701D1E90023CBE70000000008
:1010500030000000F0B40D460188090502D5214C8E
:101060007C4402E01F4C7C440E34002100F1240635
:1010700008E002F00F071209E75D42EA03721B095C
:101080007754491C52EA0307F3D102780023120770
:1010900004D5702D06D009B1022311342246F0BCCC
:1010A00000F01EBA01231034F8E770B504460D466F
:1010B00021461068FFF757FE024629462046BDE844
:1010C00070400023C6E7D21D22F00703D3E90023B6
:1010D000C0E70368126843F0200303600823C3617C
:1010E0000023B7E7603D02002DE9F05F8946044622
:1010F0004FF0000ADFF874B1FB44C0F820A020468E
:10110000E1688847002874D0252806D0D4E9012159
:101110009047206A401C2062F1E700265F46204687
:10112000E16888472028054607DB312D05D278196C
:1011300010F8200C08B10643F1E7B00701D526F0FE
:101140000406C4F81CA00027C4F818A02A2D09D052
:10115000284621F075FE38B304EB8708303DC8F807
:10116000185019E059F8041B204604EB87029161DE
:10117000E1688847012F054618D1E069002820DA88
:1011800026F020061DE0D8F8180000EB800005EBE3
:1011900040003038C8F818002046E1688847054606
:1011A00021F04EFE0028EED1012F0AD02E2D08D1BD
:1011B0002046E16888477F1C0546022F46F020063E
:1011C000C4DBA069002803DA404246F00106A061B2
:1011D000F00701D026F010066C2D0BD0682D09D039
:1011E0004C2D39D06A2D35D0742D35D07A2D33D091
:1011F00016E038E0E1682F4620468847B8420546A9
:1012000009D16C2F26D04FF48060E1680643204658
:101210008847054604E06C2F1AD04FF480700643CF
:101220000DB3A5F14100192802D8203546F4006617
:101230004A462946204626604E46FEF72BFF80B1DF
:1012400001280BD0F61D26F0070000F1080956E72B
:101250004020E4E78020D8E70020D6E706F1040923
:101260004DE7284652E7206ABDE8F09FF03C0200B7
:101270002DE9F041074615460E461020FFF728FAE3
:1012800004000AD06760C4E9026500F0ADF80168A7
:10129000216004600020BDE8F0810120FBE710B56B
:1012A00000F010FDBDE8104000F007BD032A40F239
:1012B000308010F0030C00F0158011F8013BBCF1F8
:1012C000020F624498BF11F801CB00F8013B38BF10
:1012D00011F8013BA2F1040298BF00F801CB38BF1E
:1012E00000F8013B11F0030300F02580083AC0F03C
:1012F000088051F8043B083A51F804CBA0E80810E4
:10130000F5E7121D5CBF51F8043B40F8043BAFF316
:101310000080D20724BF11F8013B11F801CB48BF70
:1013200011F8012B24BF00F8013B00F801CB48BFA6
:1013300000F8012B704710B5203AC0F00B80B1E8DF
:101340001850A0E81850B1E81850A0E81850203AFA
:10135000BFF4F5AF5FEA027C24BFB1E81850A0E803
:10136000185044BF18C918C0BDE810405FEA827C1D
:1013700024BF51F8043B40F8043B08BF7047D20734
:1013800028BF31F8023B48BF11F8012B28BF20F8D5
:10139000023B48BF00F8012B70474FF000020429C0
:1013A000C0F0128010F0030C3FF4CAABCCF1040C77
:1013B000BCF1020F18BF00F8012BA8BF20F8022BC8
:1013C000A1EB0C01FFF7BCBB5FEAC17C24BF00F8B6
:1013D000012B00F8012B48BF00F8012B7047704724
:1013E00000487047A048032000487047B8480320D1
:1013F000034640688C46002818BF88423CBF03461D
:101400004068F8D318681844884207D00CF10300EC
:1014100020F00700001D411A521A0146081D0A60FB
:10142000FFF785B930B5B0F10A0271F100034FEA58
:10143000900E4EEA817EB0EB0E0061EB91014FEA17
:10144000101E4EEA017E10EB0E0041EB11114FEA27
:10145000102E4EEA016E10EB0E0041EB11214FEA07
:10146000104E4EEA014E10EB0E0041EB11414018B8
:1014700041F100014FEAD00040EA41704FEAD1014A
:101480004FEA810444EA907410EB800544EB0104B8
:101490006D1944EB0404521BA3414FF0000348BFF5
:1014A0000A3200D530BD401C41F1000130BD0000C2
:1014B0001FB584B000200A9C06AB04AA02A90094C0
:1014C000AFF3008018B1DDE9020108B010BD034898
:1014D000204000F04CFD00200146F6E70000207C93
:1014E0002DE9F0470D4699469246044600F124083E
:1014F0000168880604D5E06921F01001216000E050
:101500000120A84201DD471B00E00027A1697A19EC
:1015100002EB0900081AA0612078C00602D4204618
:10152000FFF7F1FB002608E0D4E901211AF80600D4
:101530009047206A401C761C20624E45F4DB2078E0
:10154000C0060AD52046FFF7DEFB06E0D4E90121FC
:1015500030209047206A401C2062381EA7F1010706
:10156000F4DC07E0D4E9012118F805009047206A6F
:10157000401C2062281EA5F10105F3DC2046FFF780
:10158000D8FB2078000602D50220BDE8F0870120B4
:10159000FBE72DE9F04F1C4683460E468BB0D2E99F
:1015A0000030149DC10F009120F00041080D01D0C2
:1015B000012200E00022801A0027DA1B61EB0051B3
:1015C00091460A438846A0F2324A0AD000210846D2
:1015D00023F056FA10F4400F14D00099A1B1400244
:1015E00013E0012D02D00020302105E0E043CDE9D9
:1015F000060705E03154401CA042FBDBCDE9067430
:10160000089529E0002005E00002002801DA022008
:1016100000E00120012D08950FD00021CDE9041034
:101620003046CDE902A4CDE9009809AA06A900F048
:10163000A9FB0790099810B105E00121EEE7102100
:10164000084623F01DFA012D06D1DDE90610641CC1
:101650002144884200DA0897079806AC375494E88A
:101660000E00CBE90012CBF808300BB0BDE8F08FCC
:101670002DE9F04F88460446D21D22F00701ADF552
:10168000477DD1E90001CDE9BE0121F015FA0246FE
:10169000BF98C00F01D02D2007E02068810701D539
:1016A0002B2002E0202101EAC000032AC09001D0D3
:1016B000072A05DB03464146204600F023FB08E1EC
:1016C0002078800601D5E06900E0062040F2F12391
:1016D000B8F1650F814606D0B8F1660F16D0B8F1A3
:1016E000670F6BD12FE00020B9F53C7F009001DC43
:1016F00009F10103BEAA01A9C1A8FFF74AFFDDE96C
:10170000C170002609F10105834644E001204B46E3
:1017100000904FF00047BEAA01A9C1A8FFF739FF0A
:10172000DDE9C2B0C1995D46002610B909F101009A
:101730000D18B9EB050003D4C0F1FF3609F101051E
:10174000A5EB090028E0B9F1010F01DA4FF001091A
:10175000002099450090484600DC0346BEAA01A936
:10176000C1A8FFF716FFDDE9C1704D46002683468C
:10177000207800070AD4AB4500DA5D4601A8012DA8
:1017800004DD411911F8011C302907D04F4502DA58
:1017900017F1040F04DA012082460FE06D1EEEE718
:1017A000002F02DCED1B3E4403E0781CA84200DD64
:1017B0007D1CB81B00F1010A4FF00047207800079C
:1017C00003D4AA4501DB4FF0FF3A0021B7F1004FE7
:1017D0000DF217388DF8171324D002202B23002F79
:1017E00001DA7F422D230A21021EA0F1010000DC54
:1017F0005FB197FBF1FC97FBF1F201FB1C7C1746F4
:101800000CF1300C08F801CDEEE7A8F101000370EF
:101810002188090501D5452100E06521A0F10108D5
:1018200000F8011CC098C4A9A1EB0807FF1D00B176
:101830000120411901EBEA70A1693844081A401EE1
:10184000A0612078C00602D42046FFF75CFAC09859
:1018500028B1D4E901219047206A401C20622078F9
:10186000C00622D52046FFF74EFA1EE0002E04DB0C
:10187000B34502DD01A8805D00E03020D4E90121FC
:101880009047206A401C2062761CAAF101005FEAA2
:10189000000A0AD1FFF7A4FDC0680168405CD4E9E2
:1018A00001219047206A401C2062281EA5F10105F5
:1018B000DCDC07E0D4E9012118F8010B9047206A2D
:1018C000401C2062381EA7F10107F3DC2046FFF719
:1018D00030FA03200DF5477DC8E600002DE9F04FF2
:1018E00004460D46D21D22F0070089B0D0E90097CA
:1018F0004846394621F0E0F80246F80F01D02D2382
:1019000007E02068810701D52B2302E0202101EAAE
:10191000C0038DF820300BB1012000E00020032A25
:10192000824601D0072A04DB2946204600F0EAF966
:101930003FE12078800601D40D2500E0E569C7F37A
:101940000A560D2D49DA00214FEA175B084623F0AD
:1019500097F8002F00F4400007DA00EB80004FF406
:10196000400100EBD07001EA60008115012901DD22
:101970004FF0FF3100224FEA850CBCF1180F06D35F
:101980001346ACF118004FF08052C24003E04FF410
:10199000801323FA0CF30CF10C0CBCF1200F04D3D0
:1019A000ACF1200C09FA0CF001E007FA0CF0002968
:1019B0004FF0004801DD18B90FE00ED140450CD3BF
:1019C00019EB02095F4121B9404502D19F4329EA41
:1019D0000209BBEB175F00D0761C2088000502D5FA
:1019E0007B48784402E07A487844193808AA3023C2
:1019F00002F80A30037C0AF10101002E0AF1020A02
:101A000053546A4602DC4FF0300101E04FF03101DF
:101A10004FF001088DF8001002D0A6F2FF3603E067
:101A200059EA470100D06B4E002D02DC21780907EE
:101A300004D54FF002082E218DF80110C446002174
:101A40000BE0C7F303433F01C35C491C6D1E02F862
:101A50000830052908F1010801DA002DF1DC002128
:101A60000CE000EB1973491C1B786D1E082902F865
:101A700008304FEA091908F1010801DA002DF0DCFD
:101A800021688B0602D516E0A8F10108E04505DDC6
:101A900002EB080313F8013C302BF5D0B8F1000F2E
:101AA00009DD02EB080313F8013C2E2B03D10907D3
:101AB00001D4A8F10108002D05DD3E2102F808102F
:101AC0006D1E08F10108407C002E02F8080008F1A4
:101AD000010804DA2D20764202F8080002E02B20EB
:101AE00002F808000A214FF47A70864208F10108D2
:101AF0000BDB96FBF0F3303302F8083096FBF0F383
:101B000008F1010800FB136601E0642E0CDB642081
:101B100096FBF0F3303302F8083096FBF0F308F14F
:101B2000010800FB136601E00A2E06DB96FBF1F0CC
:101B3000303002F8080008F1010896FBF1F001FBD3
:101B40001060303002F80800A16908F1010808EBC4
:101B5000050202EB0A00081AA0612078C00602D430
:101B60002046FFF7D0F8216A08AE01EB0A00206298
:101B700004E0D4E9012116F8010B9047BAF1010AFB
:101B8000F7D22078C00602D52046FFF7BCF86E4693
:101B900009E016F8010B3E280FD0D4E90121904747
:101BA000206A401C2062B8F10108F2D22046FFF7FB
:101BB000C0F809B00320BDE8F08F206A28442062F5
:101BC00003E0D4E90121302090476D1EEBD3F8E704
:101BD0002A34020002FCFFFF10B5436913B1AFF3D2
:101BE000008001E0FFF7C8F8012010BD127800F175
:101BF00024010A7000224A700122EDE711684FF0BB
:101C0000FF32E9E710B5436913B1AFF3008001E09B
:101C1000FFF74CF9012010BD126800F12401426267
:101C2000002282620122EDE711684FF0FF32E9E7FE
:101C30002DE9F04116460C460546FEF7FFFF036806
:101C400093F80101012807D0FF2C12D8185D80B14C
:101C500001202C70BDE8F081D3F8070132462146FF
:101C600003F20713C7182846BC46BDE8F04101231C
:101C700060474FF0FF30EDE72DE9F0410646FFF7F2
:101C8000B3FB8046454613E016B1E068B0420ED182
:101C900020682860D4E90101D8F800708847204600
:101CA000FEF745FDD8F80000B842EBD100E025462C
:101CB0002C68002CE8D1BDE8F081002801D0FEF7A7
:101CC000B7BF704710B5002102A000F037F901201E
:101CD00010BD0000534947414252543A2041626EC0
:101CE0006F726D616C207465726D696E6174696F7D
:101CF0006E00000010B500F041F9BDE81040FFF79C
:101D0000DCBF00002DE9F0411F46044603260168B0
:101D1000072A01F4006004DB08B116A505E016A54A
:101D200003E008B115A500E015A521F01000206022
:101D3000A069C01EA0610FB1401EA0612046FEF741
:101D4000E2FF4FB1D4E9012138469047206A401C98
:101D50002062C01C206206E0206AFAE7D4E9012173
:101D600015F8010B9047761EF8D22046FEF7E1FFEA
:101D7000BDE8F0814E414E006E616E00494E460056
:101D8000696E66002DE9FF4F0446ADF5437DD1AB8A
:101D900093E82500D099DDF854830091CDE9010244
:101DA000C0AAC1A903A800F031FA0346C198D4998A
:101DB000064641B11D446D1C012D04DAC5F1010137
:101DC000012508440B44A6464FF0FF324FF0390B73
:101DD000002124E0401EB04201D300270CE0DDF8D2
:101DE00000C387083CF817704FEA807C4FEA1C7CE0
:101DF00027FA0CF707F00F076D1E092F0EDA002ADD
:101E000002DB303204F8012B5A46002903DD491E5B
:101E100004F8012BF9E700213A4600E0491C08B11B
:101E2000002DD7DC4FF0010CB8F1020F08D0B8F14B
:101E3000010F07D0A0B1401EB04205D300270CE02F
:101E4000002522E0022520E0C09F850837F81550C4
:101E500087073F0FFD4005F00F07052F02DB04E069
:101E60004FF000074FF0000507E003DC002901DC1C
:101E7000D50701D0012500E002250FB14FF0000C7D
:101E8000022D02D0BCF1000F22D04FF00009DDF886
:101E900000A313E0401EB04201D300270BE04FEA3D
:101EA00090083AF818704FEA80784FEA187827FAC5
:101EB00008F707F00F070FB1012004E00028E9D16F
:101EC000B9F1000001D04FF0000C022D00D1054601
:101ED000012D02F101000AD010B1303204F8012BBB
:101EE0005846002916DD491E04F8010BF9E718B120
:101EF000313204F8012B06E0312004F8010BD498AC
:101F00005B1C00B9491E3020002903DD491E04F87E
:101F1000010BF9E7C4980360C598C0F800C00DF53F
:101F2000477DA4EB0E00BDE8F08F10B50446AFF37B
:101F300000802046BDE81040FEF720B970B5054688
:101F40000C460A2000E06D1C00F040F835B12878FE
:101F50000028F8D102E0641C00F038F814B12078B1
:101F60000028F8D1BDE870400A2000F02FB810B565
:101F700000F0C6F9BDE81040FFF79FBE10B501287C
:101F800005D0002103A0FFF7D9FF012010BD09A152
:101F9000F8E7000053494752544D454D3A204F75DC
:101FA00074206F662068656170206D656D6F727951
:101FB000000000003A2048656170206D656D6F7209
:101FC0007920636F727275707465640008B5694634
:101FD0008DF800000320ABBE08BD0000810B43F26A
:101FE0006D425143490B01EB107101EB507070478A
:101FF0002DE9FF5F804600252F46DDF838A02CE054
:1020000001990020044631F817B021E0544503D26D
:10201000039931F8141000E000210BFB0100B0B16E
:102020003E19002102E028F815106D1CB542FAD9BE
:1020300038F81610014489460846FFF7CFFF6FF4C1
:102040001C7100FB01F209EB021128F81610641C48
:102050005445DBD30028D9D17F1C02988742CFD3C7
:10206000284604B0BDE8F09F2DE9FF4F87B003ACD0
:1020700001230025159EADF8182084E80B000A9B6B
:102080000121DBB1B3FA83F0C0F11F0783EA5300EB
:102090000DF10C0B80EA900080EA101080EA10200D
:1020A00080EA104000F00100784021EA00045BF86B
:1020B0002400028001A840F8241072E001801698E4
:1020C00008B10021016001200BB0BDE8F08F0DF1D7
:1020D000040858F8242000925BF82410C4F101048D
:1020E0005BF824000B46FFF783FF48F824000A99A9
:1020F0006D000120B84008420ED0059806AB009054
:1021000058F824205BF82410C4F101045BF8240083
:10211000FFF76EFF48F82400149890B358F8240095
:10212000B0423ED9811B1498002827DD4FF00009EA
:1021300048464A465BF82430DFF8C0E116E033F841
:1021400012C01CEB000010D041F6372C824600FB79
:102150000CF040F2712C0EEBC000400F00FB0CF8AD
:10216000BAEB081F01D04FF00109521C8A42E6D396
:1021700033F811C04844604423F811005B46002046
:1021800009E00EE053F8242000EB010C32F81CC0EB
:1021900022F810C0401CB042F4D301A80D4440F80E
:1021A00024607F1E93D5169800B1056001A850F8F1
:1021B000240089E72DE9F0438946844600210A4638
:1021C0000B461DE04B4502D23CF8134021444FF032
:1021D0000A0800252C46B1FBF8F6970708FB1616EF
:1021E0003F0FB1FBF8F106FA07F72F43521CBDB2BF
:1021F00006B11046641C042CEDD32CF813505B1C64
:102200004B45DFD30029DDD1BDE8F0832DE9FF4F39
:10221000824689B00526DDF860B035E0042E0DDA7F
:1022200022464FF40050ADF804000120009001ABAD
:1022300003A906A8FFF7DCFE074600E0002706EB2F
:10224000860000EBC602DDE9160100F0AFF80024BD
:102250000DF118080DF10C09C0F30C0510E0BC429B
:1022600002D238F8140005442846FFF7B7FE6FF491
:102270001C71414305EB0111054629F81410641C3B
:10228000BC42ECD3002DEAD1301EA6F10106C5DC1C
:102290000025BBF1000128460AF5BD7609DD0B4695
:1022A000514602220090019002903046FFF7DCFE7A
:1022B0000FE00BDA51460522CBF1000300900190AC
:1022C00002903046FFF7D0FE5D4602E00120AAF8FA
:1022D0007A013346224603A900905046FFF788FE54
:1022E0000B9A01465046C2F800A0FFF763FF0A9917
:1022F0006D1E086028440DB0E7E6000000F0FFFF07
:1023000010B5022803D0410103D50DA112E0002031
:1023100010BD010101D50FA10CE0C10001D511A133
:1023200008E0810001D512A104E0400001D513A10D
:1023300000E0002115A0FFF701FE012010BD000004
:10234000496E76616C6964204F7065726174696F63
:102350006E000000446976696465204279205A6500
:10236000726F00004F766572666C6F770000000038
:10237000556E646572666C6F77000000496E657813
:1023800061637420526573756C740000534947464D
:1023900050453A2041726974686D657469632065BF
:1023A0007863657074696F6E3A200000B2F12003A3
:1023B0000AD5C2F1200320FA02F001FA03F340EA41
:1023C000030021FA02F1704721FA03F04FF00001F7
:1023D00070470000444B2DE9F04F19688246D0E960
:1023E0000360C1EBC1384FEA48084FF6FF79B8FBEC
:1023F000F0F8C84528BFC84600224FF0030E6025FC
:10240000B8FBF1F8394B3A4CDAF814701B684FEA14
:10241000004909EA040449F001095F60C3F8089023
:10242000DAF8087006F1FF3BDF601A615A619A61C1
:10243000DAF8187094461F62DA61C3F8B010C3F876
:102440003CE05D6401FB08F51BEB050B28BF4FF07A
:10245000010C1FFA80FE4EEA04049A649A621A6321
:10246000DA62C3F8B420C3F8A4406446C3F8A820D5
:10247000BBFBF5FBC3F8AC2083B0C3F8B820C3F8AE
:10248000BC206CBB4A1ED146E0460F46AA46CDE9A9
:10249000002001E0154B1B68B245D44628BFB44666
:1024A000019A01200CFB02F5009A1FFA8CF1AA1880
:1024B000B2FBF7F292B2C3F8A0205962D9F8042017
:1024C00080442244C3F80021D9F80020A6EB0A0674
:1024D0002244C3F8802105F0FBFBD8452C44D9D316
:1024E000002003B0BDE8F08FCC4107004047062034
:1024F0000000FF7F2DE9F04F6E4B6F4A1968D0E95D
:10250000047303FB07F78369D2F800B003FB07F7F6
:10251000B7FBFBF7B7FBF1F6B6F5006F28BF4FF43A
:10252000006689B0049106FB01F1C2698146C2F3DD
:102530008113C2F3810A03930591002900F0B5804D
:10254000B7FBF1F301FB1371B1F5006F28BF013345
:10255000C1F30A01002918BF013307910293002437
:1025600080204FF0010C554B554D1B6805EA0B457B
:102570005A60D9F80820DA60D9F80C201A615C6139
:102580009C61D9F82C201A62D9F82420B9F82010BF
:10259000120402F440320A43DA611FFA8BF2154347
:1025A00042EA0B425864C3F8A040C3F8A4509A60B2
:1025B000029AC3F8B040C3F83CC09C649C62C3F864
:1025C00030B0C3F8B840C3F8BC40C3F8A840002AF4
:1025D00067D0013AA046069234E0012002F1FF3CA8
:1025E000904006FB02F24FEA8C51013801914FEA0C
:1025F0000C7C02FB0B88059A06FA0AF5BF1A0BFB46
:1026000006F2691EC1F30B0141F48051009102FAF8
:102610000AF20199C2F3150E4EEA010E22F0704241
:10262000009942EA0C02ADB2C3F8ACE0C3F8B410B2
:102630005D62DA6205F04CFB029B0134A34230D0AC
:102640001E4B1B68B7FBF6F2D9F8041008FA0AF023
:102650000844C3F800010398D9F8001008FA00F004
:1026600008440499C3F880018A4228BF0A460699A3
:102670008C42B2D1079961B9012002F1FF3C904030
:102680004FEA8C5106FB02F2013801914FEA0C7CB3
:10269000AFE74FF0000C0A460E460120CDF804C00B
:1026A000A7E7002009B0BDE8F08F01233E46079759
:1026B000029354E7D0410700CC4107004047062071
:1026C0000000FF7F2DE9F04F0125C74BC74A816904
:1026D0001B6893B0C1F38101D2F80080029305FA20
:1026E00001F39A4628FA01F3022B089300F0908137
:1026F000042B00F07581082B0CBF4FF040734FF096
:1027000080630593D0E90134E41A84EAE472A2EB11
:10271000E472B2FBF8F2B2F5002F00F299814FF0AB
:10272000020C4269029D8A40B2FBF5F72CFA01FBCC
:102730000BFB08F501953E0BC7F30B05019F0496B3
:1027400007FA01F60D96B5FBF6F606FB07F78F4084
:10275000EF1B01290BFB07F702680E95079600F0A7
:102760004B81B7FBF8F608FB16757F1BB7FBF8F635
:1027700009950396002D00F0438101250C956642D2
:10278000B4FBF8F44FF0010EB6FBF8F50027240374
:1027900044EA0E040B94544640F6FF79944E0A9591
:1027A000D6F800C0C5680AF1FF3ACCF80C500569AC
:1027B000CCF81050CCF81470CCF818708569CCF8AF
:1027C0000450C569CCF820500A9D2C442503069579
:1027D0004BEA4B45CCF808500BFA01F549EA0439AD
:1027E0002C4608FB0AF5C5F3150545EA8A5A456AE1
:1027F000008C2D0405F44035054308FB08F0CCF8A7
:102800001C50CCF82870CCF830000598CCF83CE08F
:10281000CCF84470CCF84870CCF8BC70CCF8A00070
:1028200004EB044000FA0EF0CCF8A4000594CCF8B8
:10283000A870CCF8ACA0CCF8B0800B9828F070440D
:10284000CCF8B40008F1FF3044EA00700B94049C0B
:10285000CCF82C00CCF8B89084B34FF4805905988C
:10286000A246B9FBF0F9029F4C460EFA07F7D14693
:10287000CDE90F8192464FEA083BD51A9846624649
:10288000013F119300E0326805EB0803C2F80081B4
:102890003846C2F88031546205F01AFAB9F10109DC
:1028A000D844F0D1DDE90F810498119B441E0BFB45
:1028B00004F45B440BEB0A0023442218DDE90D0409
:1028C000A0423ED80198059D00F1FF390698C9F352
:1028D0000B0949EA00090298079F00FB08FE05FB67
:1028E0000EFB1FFA88F5AC46D51ACDE90413CDF8D6
:1028F0000480B8461F462B464FF0010A4D466446F9
:1029000099460AFA00FA0AF1FF3A0D92336809EB88
:102910000700C3F80071C3F880015C625046C3F839
:10292000B85005F0D5F9B8F101085F44EED1DDE902
:10293000041307980D9A00FB0BFEDDF80480734426
:1029400072440C9830B14FF002143068294D856004
:10295000C0F8A440039800283CD08246089801277C
:1029600020FA01F4014602980B9D00FB01FC01399D
:1029700045EA017104F1FF3901910699C9F30B0988
:10298000874049EA0109D51A013FAB46CDE90483E6
:102990004D469846B9465746E246A4B20692336879
:1029A000019A08EB0B00C3F80081C3F880015C6258
:1029B0004846C3F8B850DA6205F08AF9013FD044BE
:1029C000EDD1DDE905320399DDF8108001FB0AFC49
:1029D000634462440999F9B9002013B0BDE8F08F4F
:1029E0004FF0007305938DE6D0410700CC410700FE
:1029F00040470620010002007D08CDF820C0039565
:102A0000039D003D18BF01250C9500250995B6E6EC
:102A10004FF08073059375E6012034680139C4F8DE
:102A200000311FFA88F3C4F8802163620A9A0B9B75
:102A3000013243EA0173C1F30B0141EA0231C4F8E8
:102A4000B810E362029B9840013805F041F9C3E7F2
:102A500040F2092013B0BDE8F08F00BF70B58AB016
:102A600040F22820C4F200004FF08061016043F280
:102A7000FE3000F04DFA4DF28014C0F6F00420460E
:102A8000022100F059FC45F2000540F20320C4F297
:102A90000405ADF8240009A9284608F01DFB40F202
:102AA000031608A92846ADF8206008F0B5FA43F2ED
:102AB0000800C4F204000168032262F3030101600C
:102AC00007A92846ADF81C6008F048FB44F2004016
:102AD000C0F6950000F03CFD14480DF1040C009088
:102AE00012A0061DD0E905504ECE8CE84E00CDE96F
:102AF0000550684600F06CFC002000F003FD46F233
:102B0000FE3000F005FA2020012100F005FC41F222
:102B10000A0000F0FDF92120032100F0FDFB45F63D
:102B20000000C2F2020004600AB070BDB0350002BD
:102B3000080000000100000032000000000000005A
:102B40000000000080D1F008FFF788BF10B582B008
:102B500045F2000440F20320C4F20404ADF804007E
:102B600001A9204608F0B8FA40F20310ADF80000C1
:102B70006946204608F0F2FA02B010BD2DE9F04F88
:102B80006C4AD0F81CE06C4B91B01468CEF3011283
:102B900019680292D0E905C3CEF30022BCF1010FFF
:102BA00005460194039207D00A46601C4000114676
:102BB000814202F1FF32FAD8002201264FF080094B
:102BC000DFF87CB1DDF80480DBF800001FFA88F440
:102BD000C0F804E042612F6A0CF1FF3E0762C26157
:102BE000C0F8B080C663C0F8449082648262046317
:102BF000C0F8B820C0F8BC2011EB0E00B0FBF1F01B
:102C000028BF32460B90002A40F09080019E4B482E
:102C100000EA06402043049044EA06400590701EF6
:102C200018443446B0FBF6F6069603FB01F6A042C4
:102C30000C967BD391464FF0FF30CDF83CE0CDF8B9
:102C40001CC08E46CA464946C8468446C3F3150290
:102C500023F070430E920D93079E0F9876450CF16A
:102C6000010328BF7646834228BF0346002406EBB3
:102C70000C02824294BFC3EB0203C3EB00030122A8
:102C8000A146771E02FA06F60D9ACDE908E142EA5E
:102C90000777721E00920E9ACDF828C042EA83563A
:102CA000AB68DBF800102344CB60029AEB6804FAAF
:102CB00002F003440B61039A2B6904FA02F0034407
:102CC0008B61C1F8A8A0C1F8AC606B6804EB080088
:102CD0000344C1F800314FF48053C1F8B430049B71
:102CE000C1F8A0A0C1F8A430059B09F101098B60CF
:102CF00001234B62019B1C442B681844C1F88001DE
:102D00000098CF6204F0E4FF069B4B45C8D8DDE98C
:102D100008E1079BDDF828C0A3EB0E0307930C9B8B
:102D2000013198440B9BF444994295D3002011B093
:102D3000BDE8F08FCC410700D04107000000FF7FC5
:102D4000404706202DE9F04F0129074689B000F0E1
:102D5000C780022940F0CB804FF0000A4FF00409F1
:102D6000514683691B021FFA83FC644B1868FB6899
:102D700000F1FF389844B8FBF0F8614BB8F1010F4F
:102D80001C6807D02346421C52001C46944203F1A3
:102D9000FF33FAD8002501264FF0800E7B693A698F
:102DA0005B04D20402F4002203F40033134343EA29
:102DB0000A03544A43EA09031A43534B08F1FF3A02
:102DC0001B685A601D615D619D61DD61FA694CEAB5
:102DD000024C4CF020021A621AEB040C82B2C3F8C7
:102DE000B000DE63C3F844E09D649D621A63C3F8DB
:102DF000B850C3F8BC5028BF3546BCFBF4F600966B
:102E0000002D69D1090601914049A94601EA004116
:102E1000114342EA0042039200FB04F20692C0F31F
:102E20001502049220F0704205923A464FF0FF36A8
:102E300057464FF0010B92460291079001E0324B4A
:102E40001B6806F1010EA045404628BF2046BE453E
:102E500028BFBE46019A00EB060CC3F8A820BC456B
:102E600094BFCEEB0C02CEEB0702059900F1FF3CBC
:102E700041EA0C7C04990BFA00F041EA8252C3F853
:102E8000AC20DAF80420079901380EFB0122C3F8C0
:102E900000214FF48052C3F8B4200022C3F8A020D0
:102EA000029A0135C3F8A420039AA8EB04089A609B
:102EB000DAF808202644DA60C3F824B0DAF80020F3
:102EC0004A44C3F88021C3F82CC004F001FF069BDC
:102ED0009944009B9D42B2D3002009B0BDE8F08F19
:102EE0004FF0000C4FF0400AE14681693DE74FF09A
:102EF000000CE246E146614637E700BFCC410700DF
:102F0000D041070010010506404706200000FF7F62
:102F1000F0B540F00041B1F1004F00D1F0BD44F2F6
:102F2000140340F2602E002140F2FE32C4F204038A
:102F30004FF0706CC4F2000E00240CE0F6B24EF8B4
:102F40002560002C18BFF0BDB1EB104F4FEA1040C8
:102F500004F10104E2D00504F3D00546C0F30336C2
:102F60006FF31F359542A6F10106E7D11F680CEA01
:102F7000066566F31B671F6053F8046C06F0706605
:102F8000AE42F9D1DDE70000B0B540F2B025C4F2A1
:102F90000005044655F82000411E05294FF00000A9
:102FA00070D8DFE801F0030C19236F28D5F87C02F4
:102FB000012847D000284FD100F06EF84DE044F2D0
:102FC0000020C4F20400006841F600318006C0F21F
:102FD000B70101EAE07055E044F20020C4F20400B9
:102FE000D0F80011C9070FD1002019E044F24020A9
:102FF000C0F20F0046E04CF21000C4F2040000885A
:10300000800515D400203DE0D0F80801C00744F247
:103010000040C0F6950004BF46F60040C0F2DC2038
:10302000D5F8D810012252FA81F1B0FBF1F029E075
:1030300044F20020C4F20400D0F80002C00114D40D
:1030400000201FE000F0C8F8D5F83411012252FA30
:1030500081F1B0FBF1F000E00020D5F8141101225D
:1030600052FA81F1B0FBF1F00CE049F22010C4F209
:1030700005000068C0070FBF002045F61000C2F22F
:103080000200006805EB84010122D1F8A01552FA74
:1030900081F1B0FBF1F0B0BDB0B52DED068B44F27F
:1030A0000450C4F20400016844F20012C1F341610B
:1030B000C4F20402022914D0012908D0E1B9116830
:1030C000C90119D545F60C01C2F202011BE0D2F884
:1030D000001246F60043C906C0F2DC2303EAE17C95
:1030E00013E0D2F80013C90106D549F22011C4F249
:1030F00005010968C90702D14FF0000C05E045F64B
:103100001001C2F20201D1F800C0D2F80024D201AD
:1031100003D40020BDEC068BB0BD0268120305D4B9
:103120008268D2B2002A08BF012200E001220368AF
:10313000DB0212D4D0F800E001693E2501F01F0344
:103140005FEACE3458BF05EA4103002B08BF0223D3
:1031500000EE103AB8EE408A01E0B7EE008ABCFB00
:10316000F2F100EE101A416AB8EE409A090506D451
:10317000C06880B200EE100AB8EE40AA15E0416ABD
:10318000026A006A520E20F07E4000EE100A9FEDA7
:10319000111AB8EE400A61F3C71220EE010A01EEDF
:1031A000102AB8EE411A30EE01AA1AEE100A21F0E8
:1031B0000FFD0843B7EE000A00FE0A0A20EE090AD6
:1031C00080EE080ABCEEC00A10EE100ABDEC068BB9
:1031D000B0BD00BF00000033B0B52DED068B44F24A
:1031E0000460C4F20400016844F20012C1F34161BA
:1031F000C4F20402022914D0012908D0E1B91168EF
:10320000C90119D545F60C01C2F202011BE0D2F842
:10321000001246F60043C906C0F2DC2303EAE17C53
:1032200013E0D2F80013C90106D549F22011C4F207
:1032300005010968C90702D14FF0000C05E045F609
:103240001001C2F20201D1F800C0D2F80025D2016B
:1032500003D40020BDEC068BB0BD0268120305D478
:103260008268D2B2002A08BF012200E0012203686E
:10327000DB0212D4D0F800E001693E2501F01F0303
:103280005FEACE3458BF05EA4103002B08BF022392
:1032900000EE103AB8EE408A01E0B7EE008ABCFBBF
:1032A000F2F100EE101A416AB8EE409A090506D410
:1032B000C06880B200EE100AB8EE40AA15E0416A7C
:1032C000026A006A520E20F07E4000EE100A9FED66
:1032D000111AB8EE400A61F3C71220EE010A01EE9E
:1032E000102AB8EE411A30EE01AA1AEE100A21F0A7
:1032F0006FFC0843B7EE000A00FE0A0A20EE090A36
:1033000080EE080ABCEEC00A10EE100ABDEC068B77
:10331000B0BD00BF0000003340F20032C4F2000232
:103320004FF0C04342F820304B1E002908BF4FF039
:10333000804342F82030704702291BD001290BD06E
:1033400001BB4FF28001C0F2FA21884218D843F243
:103350000062C0F26E122BE04EF20011C0F2F55185
:1033600088420DD849F20001C0F2D03188421BD901
:10337000022121E04DF28011C0F6F001884203D90C
:1033800001207047032117E04EF20011C0F2F55101
:10339000884201D903210FE049F20001C0F2D03187
:1033A000884201D9022107E045F20012C0F225222D
:1033B0000021904288BF012143F20800C4F20400BA
:1033C000026822F00F0211440160002070470000E3
:1033D00010B544F2045EC4F2040EDEF8FC1241F0B3
:1033E000010344F20051C4F20401CEF8FC320B6830
:1033F00023F003030B60D0E900C2D0E90234CEF819
:1034000000C0CEF8082042F00042CEF8082043F079
:103410000042CEF81030CEF8102044F00042CEF832
:103420000C40CEF80C2002690123CEF8202042691E
:10343000C5F65A23CEF824204FF60832CFF6FF7295
:103440008B50DEF80020C2F34163022B1BD0012B0E
:103450000CD023BB4FF60042CFF6FF728A58D20140
:103460001DD545F60C02C2F202021FE04FF60062C3
:10347000CFF6FF728A5846F60043D206C0F2DC232C
:1034800003EAE27C14E06FF0FF028A58D20106D50D
:1034900049F22012C4F205021268D20702D14FF09D
:1034A000000C05E045F61002C2F20202D2F800C09C
:1034B000DEF80020120306D4DEF80820D3B2002B79
:1034C00008BF012300E00123BCFBF3F244F6D35311
:1034D000C1F26203A2FB03234FF4967202EBD312F4
:1034E0006FF35F42CEF814200A6842F003020A60CC
:1034F0000A68D201FCD58469FFF7CEFD201A18BFF7
:10350000032010BD44F20051C4F204010A6822F401
:10351000403210430860704749F20021C4F20501AF
:103520000A6800F00F0042F001020A604A6822F0C7
:1035300001024A608A6942F001028A61CA6922F086
:103540000102CA610A6A024300200A627047000051
:1035500044F20041C0F69501884246F60041C0F2AF
:10356000DC211EBF884201207047411A44F200301E
:1035700018BF0121C4F204008160016821F4000138
:103580000160016841F010010160016841F0200113
:103590000160016841F00101016000BF0168C901DB
:1035A000FCD500207047000070B54CF20000C4F25A
:1035B00000000468046044F2CC50C2F206000078B7
:1035C000B0B144F690260025C2F2060603E000BF23
:1035D0000135082D0BD024FA05F0C007F8D030686B
:1035E00050F8251000291CBF20468847F0E770BD21
:1035F00044F69020C2F2060000680168002908BF66
:1036000070BD2046BDE870400847000070B54DF21F
:103610000000C4F200000468046044F2CC50C2F21E
:1036200006004078B0B144F690260025C2F20606A6
:1036300003E000BF0135082D0BD024FA05F0C007C8
:10364000F8D0706850F8251000291CBF2046884724
:10365000F0E770BD44F69020C2F2060040680168B1
:10366000002908BF70BD2046BDE870400847000033
:1036700070B54EF20000C4F200000468046044F229
:10368000CC50C2F206008078B0B144F690260025F6
:10369000C2F2060603E000BF0135082D0BD024FA64
:1036A00005F0C007F8D0B06850F8251000291CBFFD
:1036B00020468847F0E770BD44F69020C2F206002D
:1036C00080680168002908BF70BD2046BDE87040D1
:1036D0000847000070B54FF20000C4F20000046813
:1036E000046044F2CC50C2F20600C078B0B144F697
:1036F00090260025C2F2060603E000BF0135082D22
:103700000BD024FA05F0C007F8D0F06850F8251067
:1037100000291CBF20468847F0E770BD44F6902082
:10372000C2F20600C0680168002908BF70BD2046CB
:10373000BDE870400847000070B50020C4F20100E9
:103740000468046044F2CC50C2F206000079A8B1CB
:1037500044F690260025C2F2060602E00135082D47
:103760000BD024FA05F0C007F8D0306950F82510C6
:1037700000291CBF20468847F0E770BD44F6902022
:10378000C2F2060000690168002908BF70BD20462A
:10379000BDE8704008470000431E0846462B37D856
:1037A000DFE803F02626262626323232323234343F
:1037B0003430303030302E2E2E2E2E592C2C2C2CF6
:1037C0002C4B493B392A2A2A2A2A28282828284FDC
:1037D0004D242424242424242424245755474543B9
:1037E0004136363636363F363D535100FEF76ABF16
:1037F00001F004BF04F018BC06F084BC01F042BD27
:1038000000F09CBF00F0FEBA02F040BB02F0AEBD7B
:1038100040F20910704700F023B800F025B804F01A
:10382000B7BC07F0BDBC06F0F1BE07F0EFBC00F07E
:1038300081B9FEF75FBE07F0BFB9FFF79FB907F088
:103840009BBA04F06DBA00F013B807F0BDB8FEF7EC
:10385000C1BD08F01FB801F07DBB00BFFFF79CBFE2
:103860000221FFF76FBA00BF0121FFF76BBA00BF5B
:103870002DE9F04FAB4BC7691C684FF0010EC66DC8
:103880008246B7FBF4F0A84B97B0D3F800B0A74B33
:1038900009901A680BFA0EF3DAF820000193591E0A
:1038A000DAF83C30014403940446A3F10200B0FA74
:1038B00080F00025DAF830304009DAF840800090D6
:1038C000DAE90D9056600893DAF80C300697136128
:1038D0005561DAF810300A909361DAF874301362A7
:1038E000DAF86430BAF860C01B0403F4403343EAEA
:1038F0000C03D361C2F8B0B0C2F83CE05564019B40
:103900000998B1FBF3FC039B049403FB04F3039CB1
:10391000956404FB10770297C6F301170597C6F369
:103920000027019E95628E421563CDF81CC0C2F837
:10393000B8500F97C2F8BC50C2F8A85000F2ED8002
:103940002646089F03FB00F309FB07F104460EFA25
:1039500006FE0A9815930EF1FF33139300FB01F353
:10396000A8EB000107FB01F107FB00F00B91704988
:103970000A9001EA00410098089341EAC07130467C
:1039800008FB07F304FB03F306FB03F6049F1496FE
:1039900004FB07F4A7EB0B06B6B246F48036C3F37C
:1039A00015031096461E43EA86530A9824F0704485
:1039B000119344EA0673129383B20B430D930304ED
:1039C0002F46A946A8460C93009527E05C468BB28B
:1039D0001363DAF810302BB10F9905FA01F103EBFC
:1039E00041039361DAF80C3000990B441361039999
:1039F000069B8B425CD2029BEBB9089BA14404FB63
:103A00000388059B01379C40009B5D442344009341
:103A1000079BBB4240F28180444B1A68049901988D
:103A2000A1EB45039842D1D85845044614BF109BDA
:103A3000BDF81030CCE718460B9B0C9EB3FBFBF295
:103A40000A9B00F1FF3CA0B2B3FBFBF1064301204F
:103A50004FF0000E354B02441B680139CCF30B0CC0
:103A6000C3F8ACE04CEA023C8AB20E921499DAF840
:103A700004200A44C3F800210E9AC3F8B4C0C3F866
:103A8000A0200D9A1599C3F8A4209E60DAF80820AA
:103A90004244DA60BDF808205A62DAF800200A448D
:103AA0004A44C3F88021C3F82CE004F011F9A4E7DC
:103AB000119B0999C2F8AC300B9B0139B3FBFBFE9B
:103AC0000A9BDAF80400B3FBFBF30EF1010EC1F31D
:103AD0000B01013B0C9E41EA0E319BB2C2F8000182
:103AE000C2F8B410A0B2C2F8A0300D9B0643C2F8D1
:103AF000A4309660DAF80830BDF824C04344D3609F
:103B0000C2F824C0DAF8003013984B44C2F8803170
:103B1000129BD36204F0DCF86DE7002017B0BDE81B
:103B2000F08F00BFD0410700CC410700404706207E
:103B30000000FF7F2DE9F04F064601204FF00008FE
:103B4000AD4BAE4A19681368B26B9FB0154604932B
:103B50008340B76C10935C1EF369D6F85CC0119774
:103B6000DF1B336BD6F820900597B76DC1F804C002
:103B7000C1F81480029333690D928B61736F4C44CA
:103B80000B62736EB6F860201B0403F440331343DA
:103B9000049ACB61C1F8B020C863C1F84480C1F871
:103BA0004880C1F82880C1F83080C1F8B880109BE7
:103BB0002A46681EB4FBF3F507F1FF3E14950EFB91
:103BC0000025A3421C95CCF30115C1F8BC801395C8
:103BD000CCF3002C00F20B811546029CCB4602FB75
:103BE00004FA874A07FB04F302EA0442119CCDF869
:103BF00048A004FB09FA049CC3F31503A9EB0404D1
:103C0000A4B2CDF86CA044F4803A040443EA805096
:103C10000E9004F47F00159043EA8550BDF80830FB
:103C20001A9042EA0300129AB94612044746CDF8A8
:103C30000480CDF860A006901692CDF83C80CDF8B7
:103C40000C80CDF85CC0CDF874E02CE0049A1FFA2B
:103C50008BF30B63F368039803440B61336933B14F
:103C60000198179C00FA04F403EB44038B61119B49
:103C7000059883425CD9059B13BB1299174402FB3C
:103C8000018813990F9B8A400399013311440391D2
:103C9000019A04990F930A440192149A9A4240F2AD
:103CA000A680554B1968019B109AABEB43039A42CF
:103CB000CCD8049B9A4214BF189B1FFA8BF3C8E719
:103CC0000499029B0024B3FBF1F34B49013B0868C4
:103CD0001A999BB2C0F8AC101599C0F8A8400B43D4
:103CE000059975684C1EC4F30B0444F48054C0F865
:103CF0000051C0F8B440C0F8A030069B0792C0F84D
:103D0000A43093B2169A13438360B3681B9A43445A
:103D1000C3608BB24362336813443B44C0F88031C4
:103D20002BF07043C362012003F0D2FF079AA4E78F
:103D30001846002B9FD0029B049C169DB3FBF4FCFD
:103D4000059C4FF0000A631EC3F30B0343F480533A
:103D5000099393B22B430793DDE91C532B4408933B
:103D6000A3B20A932BF070430B930CF1FF35159B14
:103D7000ADB21D4344420C95199201E01E4B1968E7
:103D80000E9B0D9DC1F8AC30089B0120E218B2FBE0
:103D9000F9F2336FAA1A02F03F0C4CEA036309FBF5
:103DA0000242C1F8A8307368029D05FB0233C1F8D6
:103DB0000031099BC1F8B4300C9BC1F8A030069BC0
:103DC000C1F8A430079B8B60B3684344CB600A9B67
:103DD0004B6233683B445344C1F880310B9BDA4457
:103DE000CB6203F075FF0134C8D1199A43E7002074
:103DF0001FB0BDE8F08F00BF40470620CC41070050
:103E00000000FF7F2DE9F04F8246B64AC069146872
:103E1000C1B0B0FBF4F8DAE90B15B34B1D9505FB07
:103E200001F5DAF84C201B68DAF844701E93BE18CE
:103E3000DAF818301A922695DAF83C20DAF8205091
:103E400019930892DAF85C3006EB46021395DAF81B
:103E500028501B964FEA4209DAF83460DAF8382025
:103E60000B95C3F3011500940190149129960292C9
:103E7000DAF848E0DAF840201197DAF850B01C95EB
:103E8000C3F300252E9504FB08F53146441B064676
:103E900008980594012800F04984199B013B00FB18
:103EA00003130B9838448342149B03EB0E04029BCC
:103EB000A3EB040400F2F3830023013E06FB024B54
:103EC0002F93DAF87030002B00F0F4831B991998C7
:103ED0000B46884288BF01332593DAF86430BAF87C
:103EE00060C01B0403F4403343EA0C0C7F4B009C7E
:103EF0001B680020C3F81CC003931D9BDAF87410E4
:103F000004FB03FC0127039B139C19621946DF6322
:103F100098649862C3F8BC00C3F8B800269BC1F847
:103F2000B030C1F8AC00C1F830C0002C00F0EF8315
:103F3000029C013D02FB05452C463D95350729466F
:103F400036951E9D0E9008FB05F0AF40013F069789
:103F500087B2681E4FEA007808461697059F0199B8
:103F600007F1FF3C6746A94228BF404602FB07F71E
:103F70000A90B818CDF810C0A0EB0E0C2646654686
:103F80001498A919A4EB0B043F94814298BF3446BE
:103F90003E91199E1B99A3468E428BBF9026002608
:103FA00009240024299D3996119ECDF8D0C0A81B64
:103FB0001A9E02FB00FCAE1B3296029E02FB05F528
:103FC00006FB00F6013880B240F0806132984C4424
:103FD00000FB02F20C92009A09F1090002FB04F9BD
:103FE0000024CDF8849002FB00F90BF1FF3B2491F3
:103FF000CDF8DCB0CDF88090099407942998029907
:10400000329AA34601FB00F401FB02F0A1EB0E0182
:1040100039442791299F11991A9AC91B01FB033131
:104020001D9BB6B21944269B3091D11B01FB033175
:104030001D9BA4B2CA18C7F101011F46269B3A92E4
:1040400003FB01792A490C9A01EA0C4747EA060C5E
:1040500001EA054580B201EA0241CDF88CC045EA8B
:10406000040CCDF834C0019C41EA000C1398009A6E
:10407000CDF8E09000FB04F9259C1D99349E02FBCD
:1040800004F201FB06F6059F2292089A3B9607FB75
:1040900000F60A9803FB02F421F0704318431F90C6
:1040A00043EA08003593CDF8C4C03C961290049FB3
:1040B0001199104A43EA077301EB410128934B0120
:1040C0002D930EEB4E0102EA4E23189302EA0123D0
:1040D0001E9D10931C9BC84605FA03F33393A1461B
:1040E000039BB1E1CC410700D041070040470620C7
:1040F0000000FF7F00FFFF000024309A0099099D17
:10410000B2FBF1F0DAF8082001212A44DA60DAF88B
:104110000C200C9E050332441A615C64DAF85C20C2
:10412000189C5A60BB4A9A60249AC3F8A020239A2C
:10413000C3F8A420DAF8702044EA0262C3F8A82089
:10414000149A541EC4F30B0242EA0032C3F8B4209E
:104150001F9A0698DA62DAF804205A44C3F800215C
:10416000DAF800205A44C3F88021596203F0B0FD08
:104170002023A94AA949126891605364259B012B09
:1041800002D9339B1E440C96059B002B00F09B82AA
:10419000DDE900138B4280F0A8821E998B4280F0EB
:1041A000BA82DDE935311943249BC4F30B04C2F80C
:1041B000A030239B2C43C2F8A430DAF804300698D0
:1041C0005B44C2F80031DAF800305B44C2F8803159
:1041D000D162DAF87030189941EA0363C2F8A83066
:1041E000BDF81430C2F8B440536203F071FDDDE94C
:1041F0000023934229D3884ADAF8703012681B06EC
:10420000C2F8A8303B9B379C03EB0B003C9B03EBB5
:104210000B01249BC4F30B04C2F8A030239B2C4356
:10422000C2F8A430DAF804301844C2F80001DAF811
:10423000003006981944129BC2F88011D362169B75
:10424000C2F8B440536203F043FD089B1B9A5C1E06
:10425000199B18BF0124934241464FF0010700F219
:104260000F811A9B002B00F0DB802F9B002B00F0AE
:10427000D7800022019B3A9803FB07F5664B2D9FE0
:104280001B6800995A64DAF85C20B0FBF1F15A60BF
:10429000DAF808204FF0010C3A44399F149E3A4452
:1042A000099F06FB04F43A44DA60DAF80C200C9F0C
:1042B000039417441F61329F04957A1E92B242F014
:1042C0008067544A18989A60319AC3F8A070C3F86E
:1042D000A4201D9A013E02FB04F4DAF804205A449B
:1042E0002244C3F80021139A02FB05F5DAF80020F6
:1042F0005A442A44C3F88021DAF8702040EA026266
:10430000C3F8A820C6F30B0242EA0132C3F8B42076
:104310001F98D8620803C3F824C00290069803F0DF
:10432000D7FC20233C4A3D491268059891605364AC
:10433000DDE90013002800F0DB818B4280F0ED8185
:104340001E998B4280F0F781DDE9353143EA0100A7
:10435000319BC2F8A070C2F8A430029BC6F30B01D7
:104360001943DAF804305B442344C2F80031DAF828
:1043700000305B442B44C2F88031D062DAF87030F0
:10438000189840EA0363C2F8A830BDF81430C2F8A8
:10439000B4100698536203F09BFCDDE900239342BE
:1043A0003ED3349B03983F9E1844DDE9041319441F
:1043B0001D9B149C03FB00B0139B03FB01B1DDE9C3
:1043C0003D32A24298BF1E46134ADAF87030126896
:1043D0001B06C2F8A830013E319BC2F8A070C2F89B
:1043E000A430029BC6F30B061E43DAF804301844CF
:1043F000C2F80001DAF8003006981944129BC2F89E
:104400008011D362169BC2F8B460536203F060FC63
:1044100006E000BF1000060040470620010006002D
:10442000009B229A9B44079B13440793219A099B64
:1044300013440993209A0E9B13440E93139B5B45E0
:1044400040F26581B64B1B6807991C98DAF80C207E
:1044500081400A441A61DAF810200C9122B12E9999
:104460000BFA01F10A449A61119A002A7FF444AED2
:10447000144611461746199B1B9A93427FF6F1AEDC
:104480000023389A00982D9DB2FBF0F0A44A012633
:1044900012685364DAF85C305360DAF808302B4461
:1044A0000E9D2B44D360DAF80C300C9D2B44136125
:1044B000299B013B1D460A939A4B9360ABB243F094
:1044C0008063C2F8A0300F930D9BC2F8A430269BE6
:1044D00003FB04F5DAF804305B442B44C2F80031E6
:1044E000DAF800305B440B44C2F88031DAF87030FF
:1044F000109941EA0363C2F8A830149B013B2A9348
:10450000C3F30B0343EA0033C2F8B4302B931F9B71
:10451000D362030356620698159303F0D9FB202358
:104520007F4A8149126891605364259BB34207D941
:104530000C99DAF80C300B441361339BCB180C93B5
:104540000A9B0B9A23449A427FF68BAE149A349BB3
:1045500008FB07F602FB04331D9ACDF85CB002FBA2
:1045600003B3019A0393059B02FB0733139A02FBE3
:1045700003B30293379B159AC3F30B0313432C9396
:1045800005EB0B03049306EB0B039B4672E0DDE99E
:104590000023934280F091801E9A2A99934280F0E2
:1045A0008F80DDE9353243EA020C159BC1F30B0124
:1045B00019435B4B17981A680F9BC2F8A0300D9BEC
:1045C000C2F8A430DAF8043003442B44C2F80031B6
:1045D000DAF8003003443344C2F88031C2F82CC00A
:1045E000DAF87030109840EA0363C2F8A830BDF8DA
:1045F0001430C2F8B4100698536203F069FBDDE989
:104600000023934222D3DDE9021CDAF870302C98A3
:104610001A06434B1B68C3F8A8200F9AC3F8A020C2
:104620000D9AC3F8A420DAF804206244C3F80021EC
:10463000DAF800201144129AC3F88011DA62169A4F
:10464000C3F8B40006985A6203F042FB089B0B9A29
:104650001C44039B01374B440393049BC3444B44CA
:104660000493029B4D44434402930A9B46442344D3
:10467000934237D2059B002B89D1DDE90023934279
:10468000E4D3DAF87030109A594642EA0362244BB8
:104690002B981B68DDF810C0C3F8A820BDE7019B6C
:1046A0005E1E01232F93DAF8703006FB024B002BBD
:1046B0007FF40CAC012325930FE4DDE9271C74E79C
:1046C000DDF848C071E7DDE900138B42FFF4BDADB2
:1046D000DAF87030189E594646EA03635846C2F825
:1046E000A83096E5DDF85CB0BBE5DDE927415BE588
:1046F0008B42FFF495AEDAF8703004EB0B00189C97
:1047000005EB0B0144EA0363C2F8A83064E600201D
:1047100041B0BDE8F08F129946E5DDE9276017E664
:10472000404706201000090001000900019B2F905E
:104730005E1EFFF7C6BB12980AE600BF01222DE9F4
:10474000F04FB449B44BD0F85CA0D1F800C0196860
:10475000CAF30023C5B002FA03F30993036AD0F841
:1047600018800393D0E90AB30593036B9045009337
:10477000436B81460293836BC7690493C36BD0F884
:1047800048E02093036C0193436C1E93CAF301131A
:10479000069300F0D883029A209D4B1E05FB03224E
:1047A0000CF10104009E6400CDF81CA01046844268
:1047B0008A46A2EB0502194603F1FF33F6D3CDF882
:1047C0006CA0DDF81CA000960020019A934D02EB2E
:1047D0000E032A685E1EC2F804A0D9F80C3001242A
:1047E00013615061D9F81030BDF80CA09361D9F86D
:1047F000743023961362D9F86430B9F860101B0442
:1048000003F440330B43D361009BC2F8B0308023E4
:10481000D4635364059B906403EB0E01209B90626C
:10482000A3F10203B3FA83F3C2F830A0C2F8B800D0
:10483000C2F8BC00019A5B090893B6FBF2F30F9330
:10484000049B9942C0F07783CB1AB3FBF2F31A1999
:10485000BB1A0B930F9CD9F87030101B1C90002BC7
:1048600000F066830B9BE318002818BF01331793F1
:1048700003980CF1FF3303449C45B3FBFCFA00F2B0
:104880004E82099C00FB07F004FB0CC35E1E002354
:10489000059C079000981B9F00FB04F40A9308F105
:1048A000FF33FB180F984396B3FBF7F600F1FF3385
:1048B00024941C4601982996239E2CBF012700278B
:1048C000864238BF00240C940446039B00FB02F090
:1048D00003FB02F22E92029A0F9E0CFB02F3224679
:1048E00006FB02F2009EA2EB0E0206FB02F2029E03
:1048F0002792049A02FB06F20CFB02F23F92224638
:10490000009C013E02FB04F4049A10940CFB02F498
:104910000594A2EB0E040A1A03FB0EFE0139091AD4
:1049200006982C910CFA00F12596CDF8CCE026469D
:10493000099130940C9C04FB011400213694179CBF
:10494000129102911D910CFB04F101FA00F43594CF
:1049500006FB03F10CFB02F401982F940C040146B2
:1049600003FB00FE02FB03F3049A32941C04831A37
:1049700000982D9403FB0004531E9AB23894109BA8
:104980001C9C0F9804FB03F4039B289400FB03F486
:1049900007981B9B3C94209CCDF844E004FB03F457
:1049A00003FB00F320F0704019900CFB01F007901E
:1049B00006FB0CF0099931900B982A9400FB01F04A
:1049C0002B933790259E0599330403F47F000490C0
:1049D0001043399012488BB200EA0142714600241C
:1049E0000898CDE9418B42EAC07242EA0306249B53
:1049F000C0073F9AC3F3150305901FFA8CF0269366
:104A000040EA02433B930B043A9606900893CDF894
:104A100000A107E0CC410700D04107004047062035
:104A20000000FF7F179B012B05D1D9F80C30129A9B
:104A300013442A681361D9F8102042B1439BB3FB99
:104A4000FCF10CFB01F104FB01222B689A61002FA1
:104A500040F05581419A1D9B13924FF0FF32009315
:104A600014921E9B429ACDE91573CDE93D47D318A8
:104A7000013B1A971F93CDF8D0C01B9B139A1F9828
:104A8000159E934228BF1346B042024628BF3246C5
:104A90001E99149C8A4238BF0A46259F9446209A44
:104AA0001C1902FB0474844228BF044608468C4249
:104AB00038BF0C46B04294BF0020169A249E88BF8F
:104AC00002F03F001D9AACEB010101FB0621269A82
:104AD000A4EB0C0442EA8454D9F8702040EA026244
:104AE0002868C0F8A820C0F8AC40D9F804200A44CF
:104AF000C0F80021279A02EB010C289A0199624420
:104B00000C92239A8A42C0F00E8119995A1E18926B
:104B100041EA02720D9201229A40013A0E92179ACE
:104B20000026012A40F29881DDE932A1CDE9213C3D
:104B30004B46309A3746D146319CB246DDF848B0F4
:104B40000E4602F1FF38194600E028680023C0F83D
:104B5000B430059B049A1FFA84FC4CEA030C1FFA3C
:104B600088F31343C0F8A030019B029A9844944BF9
:104B70000A9103EA044343EA0C03C0F8A430079BFC
:104B800001371C44069B43EA09038360089B994450
:104B90008B6813443344C36001234362119B009A22
:104BA000F61A0B6813445344C0F880310D9BC3625E
:104BB000039B9A44CB685B440361099B0E989B441A
:104BC00003F086F80F9B0A99BB42BED8DDE9213C71
:104BD000129A894636990A4412921C9A002A40F089
:104BE000A8800B9A002A69D0DDE9181242EA017206
:104BF0000D92012202FA03F3013B0E93179B00264C
:104C0000934240F2DF80DDE92DA1DDF84880374690
:104C10004346884619462F9CDDF8B0B0D9F80430D9
:104C20000C9A286813443344C0F800310023109ACA
:104C30001FFA84FC1644059AC0F8B4304CEA020C02
:104C4000049A1FFA8BF31343C0F8A030019B029A19
:104C5000ABEB030B5A4B013703EA044343EA0C0363
:104C6000C0F8A430079BE41A069B4AEA030383605A
:104C7000089BAAEB030AD9F808301344C360012348
:104C80004362D9F80030009A13444344C0F880319D
:104C90000D9BC362039B9844D9F80C300B4403610D
:104CA000099B0E9819440A9103F012F80B9B0A997C
:104CB0009F42B3D1129B379A13441293129B359A99
:104CC0009B1A12931B9A13991A9B891A1391149980
:104CD000013311441491159A2A991A930A44159292
:104CE000169A521A16922B99009A0A440092299AFF
:104CF0009342FFF4C2AEDDE93D47DDF8D0C01D9B15
:104D00003F9A63441D93029B013413440293359AE6
:104D1000129B13441293409B9C42FFF483AE0020ED
:104D200045B0BDE8F08F1C9A002A00F0FC805A1EA6
:104D30001892389A34991C9CB2FBF1F1D9F80420EE
:104D40000CEB0200621EC2F30B0242EA01312A6838
:104D5000C2F80001C2F8B41039990298C2F8A01044
:104D60003A99C2F8A4103B999160D9F8081001440F
:104D7000D160A1B25162D9F800103C98014400986A
:104D80000144C2F88011DDE9180141EA0071D162E5
:104D900017990120012940F2BB80129CD9F80C1010
:104DA000984021441161099A0138A21812920A937D
:104DB00002F08EFFDDE90A32002A7FF415AF7DE7AD
:104DC0000000FF7F3746DDE92DB82F9CDDF8B0A04D
:104DD000D9F804000C9B1FFA8AFE1844109B821914
:104DE0001E44059BA0B218432B680137C3F800216D
:104DF0000022C3F8B420049A4EEA0202C3F8A020AD
:104E0000019AAAEB020A524A02EA044E079A40EAC1
:104E10000E00A41A069AC3F8A40042EA0B00089AEE
:104E20009860D9F80800ABEB020B029A10440122FB
:104E3000D8605A62D9F80000009A10440D9A404494
:104E4000C3F88001DA62039B0E98984402F040FF99
:104E50000B9B9F42BCD135E70A934B46DDE932AB51
:104E6000DDE930243746D94602F1FF38B346CDF8A4
:104E700084C01E4600E028680023C0F8B430059BBB
:104E80001FFA84FC4CEA030C049B1FFA88FE4EEACE
:104E90000303C0F8A030019B013798442C4B03EA70
:104EA000044E4CEA0E03C0F8A430079B1C44069B3A
:104EB00043EA0A038360089BB2689A44029B03EBAF
:104EC000020C0CEB0903C36001234362119B32689F
:104ED000A9EB0309009B03EB020C0CEB0B03C0F8DE
:104EE00080310D9BC362039B0E989B4402F0F0FE41
:104EF0000F9BBB42BFD81C9AB1460A9BDDF884C009
:104F0000002A7FF416AF0B9A002A7FF46DAED9E623
:104F1000984001380A9302F0DBFEDDE90A32002AEC
:104F20007FF462AECEE60B9A42B15A1E18925BE64F
:104F3000012317939CE402460B978BE4179B012BEC
:104F40007FF6C0AEBAE697427FF425AC1B913BE4F6
:104F50000000FF7F2DE9F04F01220446B649B74B10
:104F600009689BB0039119688369A76C1593C36D99
:104F700007970293C3F300239A40029B0B92826A25
:104F8000C3F30117159B0692C26A012BD0F81CA02F
:104F9000D0F820B004920597D4E90E62D0E90C80D5
:104FA0000892D4E91052019200F06681089FCDF872
:104FB00024A0BA464B1E039A07FB030E02F1010C14
:104FC000019A4FEA4C0C7746BC458946AEEB0A0E77
:104FD000194603F1FF33F6D3DDF824A001920399BB
:104FE000089F01FB06F300FB03F20E46A7F1020C3B
:104FF000174601FB05F500210138099098B2B3B2BC
:1050000043EA07438E4F169232463E68029FBCFA2F
:105010008CFC7760B360716123694FF0800EB361DF
:10502000636F4FEA5C1C3362636E90454FEA034343
:1050300003F44037834B03EA05434FF0010543EA8D
:10504000CC7343EA0003B4F8600047EA0007F76155
:105050000998049FC6F8B0804FEA0040F56307F155
:10506000FF35ADB200F47F0040EA05001FFA8BF572
:10507000C6F844E0B164B1623563C6F8B810C6F84A
:10508000B410C6F8BC10C6F8A000C6F8A430B8FB2F
:10509000F2F316461793C0F0EB800B9A8E4602FB94
:1050A00006600699019A08FB07F31144059A089FC8
:1050B00006FA02F21892421E19924A1E03921FFA31
:1050C0008AF21192159A0A93511E11EB0901B1FB54
:1050D000F9F20BFB0AF30E9207FB09F2079D1092FF
:1050E00003FB09F206FB05F50F9223F07042564BC5
:1050F0000D9203EA052238BFF446CDE906EE0B9285
:10510000CDF814E0CDF848E028BF4FF0010C4A4636
:10511000B6460A9B019DC3F315030C93216951B157
:10512000199B129EB3FBFEF00EFB00F0444B06FBF6
:1051300000111B689961BCF1000F40F087804FF0AF
:10514000FF373B46A9461746E346E0461A46CDE9F7
:1051500013ECDDF854A0CDF804C05745384628BFFD
:105160005046039B019909F03F068B4228BF0B462E
:1051700000EB020E0296DDE9086106FB0E1E0399A4
:10518000AB4238BF2B468E4528BF8E46AE4538BF52
:10519000AE460199A3EB050C8D4298BF0021AEEB02
:1051A000030E0C9B3A4443EA8E5E0492109B019AD4
:1051B000A9EB03091A440192236F0B9A98BF02913D
:1051C00042EA0363029A0A9E13431D4A08F101084A
:1051D0001168059AC1F8A830119BC1F8ACE04B6288
:1051E0006368AAEB070A13440CFB0633C1F80031CD
:1051F000236813445B44C1F880310F9B0D9A9B4494
:10520000431E42EA0373CB620123069A03FA00F0BD
:10521000A36801381344CB60E368079A13440B6119
:1052200002F056FD0E9B049A984596D33A46DDF857
:105230004CE0DDF850C009E0CC410700D041070048
:10524000404706200000FF7F00FFFF0005991698E9
:10525000714405910699129B01440691189807998B
:10526000013301440791179912938B42FFF456AF13
:1052700000201BB0BDE8F08FBAF1010F7FF496AEAD
:105280008946ACE62DE9F04F0646D0E90A144FF006
:10529000000E4FF0010CA34BC76D1A68A24BA5B0CE
:1052A0001D68036A0493036B806F57600593F3686E
:1052B00011901361C2F814E033699361736F136244
:1052C000736EB6F860E01B0403F4403343EA0E0348
:1052D000D361C7F301131293C7F300231693C7F3E7
:1052E00081030393C7F38113C2F8B0500193C2F84E
:1052F0003CC0002800F07E81C0F1070303FA0CF3E4
:1053000003F00E0343F011035364DDF810C004FBF7
:1053100001F11FFA8CF4204600234FF6FF77179413
:10532000059CB1FBF5FE40EA0440039C1491690022
:1053300021FA04F9059C936424040E94059C93625D
:105340001363C2F8A830C2F8B430B7FBF4F7139176
:10535000B4680CF1FF3119EB0101D460B1FBF9F134
:105360009060C2F8B830C2F8BC3028BF012305FBFA
:105370000EFE149805FB07F8A0EB0E001090159197
:10538000002B40F0338105999B460EFB01F30398F7
:105390004FF0010C83401E93119B01FA00F003FBB8
:1053A00001F31893049B614C0EFB03F71F9705FB59
:1053B00005F70B9708FB01F719460D9708FB03F754
:1053C000C5EB43039BB243F480331C93019B0C97C2
:1053D00001FA03F3491B89B241F480311991109904
:1053E00023F07043013943EA0177C0F3150343EA20
:1053F000815304EA00441D9383B22343109C069317
:1054000008F1FF3373440CFA04F4013C0F930CFAD7
:1054100005F3209721946F1E5C1E0A94BC05089426
:105420003C07CDF808805946CDE9220EDDF804800E
:1054300009943AE0199B136383B20E980343936077
:10544000B8F1010F05D11C9B0E981363ABB2034357
:105450009360129BF06804FA03F303441361119BF9
:10546000002B32D0189B04FB03F0B368073003EB2A
:10547000D003D360306938B1169B0BFA03F35B009D
:1054800023FA08F303449361109B23BB029B0F9AFA
:10549000934202D8149B9D424AD9159B01318B42FD
:1054A000AB4440F2A3801F4B1A68039B4FEA4B04A6
:1054B000DC40049B13981B1B9842BBD9179B0E988A
:1054C0001363ABB203439360BAE7B368059804FB78
:1054D0000033D360CEE71D9B4FF0010CC2F8AC3017
:1054E000229B0191B3FBF5F3013B9BB2C2F8A030C4
:1054F000069B1F99C2F8A430C2F824C073680F1924
:105500001E9907FA08F70B44C2F800313368219856
:105510001F44209BC2F88071D36202F0D9FB01992D
:10552000B4E700BF40470620CC4107000000FF7FE2
:1055300013460027029AB946B3FBF2F3CDE91A1BD2
:10554000DDF88CA007930194029A01985245134606
:1055500028BF5346AAEB020A274A00FA08FC116842
:105560000C9A039C1044059AB3FBF5FB03FB02F273
:10557000A2400B9CB2FBF5FEB2FBF4F2049CCEF30E
:10558000150E04FB03F303FA08F3B3FBF5F3089CD1
:10559000013A4EEA040E92B2069CC1F8ACE0C1F8A2
:1055A000A0201FFA8BF2C1F8A4404A62099A23F0A6
:1055B00070431A43736801903B44C1F800310D9B5E
:1055C0000A981F44336809F101096344C1F8803126
:1055D000CA6202F07DFB079B9945B5D3DDE91A1B32
:1055E000159B01318B42AB443FF65DAF002025B0E7
:1055F000BDE8F08F506488E6404706202DE9F04F63
:10560000B84ACFB01268B84B0492C269D0F85C9027
:105610002592026A19680292826A83694692C26B75
:10562000012B2492026C0546D0E90B8ED0E90D6760
:105630001F92426C43932192826CC9F3810B40927A
:10564000826FC9F3011A3F92C9F381120192C9F323
:105650000022499200F00F84249A4B1E049802FB0A
:105660000362441CCDF80C903F98DDF890906400E4
:10567000CDF814B0944664458B46A2EB0902194656
:1056800003F1FF33F6D3CDF870B0DDF80C90DDF800
:1056900014B03F900023249A0121A2F10204B4FA2D
:1056A00084F4924A6409D2F800C0CCF80490EA6805
:1056B000CCF81020CCF814302B69CCF818306B6F74
:1056C000CCF820306B6EB5F860201B0403F4403337
:1056D0001343CCF81C30049BCCF8B0303F9BCCF883
:1056E0003C10002B00F0B883C3F107038B4003F09C
:1056F0000E0343F01103CCF844301F99409A002365
:105700008A18501E2290B0FBF1F0409ACCF8483035
:105710004244BA42CCF828301190CCF83030CCF862
:10572000B830CCF8BC30C0F09D83D31BB3FBF1F391
:10573000259901332F93CB1A1D932F992B6F091A9B
:105740001E91002B00F08B831D9BC318002918BFEE
:1057500001330D9304994B00429323FA0BF319463E
:105760004C93029B013BCB18B3FBF1F344932CBF4A
:10577000012300230B9380F065832F981F9B03FB6D
:105780001021439A0EFB08F0531E1C9A2890D31840
:10579000B3FBF2F80B9BCDF8B480039398460593C6
:1057A000209306FB0EF306F1FF361F9A2796119EF3
:1057B000419306FB02F3409E28BF4FF00109A3EB83
:1057C00006030EFB03F303FA0BF6419B2A9607FB35
:1057D00003F3489307FB0EF303FA0BF33793A2EBA3
:1057E00007030EFB03F302FB0EF6409A03FA0BF3DA
:1057F000A7EB0202049F38BF4FF00009DF1938976A
:105800001E9F06FB07F303FA0BF72B971F9B419F85
:1058100003FB07F31B04099302FB07F302FB0EF2E1
:10582000319201FB07F201FB0EFE1F0430971704B3
:10583000489BCDF8CCE032973F9A249F03FB02FEB1
:105840001C9A049907FB02F2029FCDF828E1C1EBF4
:105850004703DDF8DCE09BB22C9243F480321FFA60
:105860008EF34B9243EAC4727B1AE40727999BB2EA
:1058700008943C4643F4803700FA0BF3C3F3150059
:105880000B0403F47F01069119494D9701EA0E4379
:105890002F4629900A9640464E46E64645461A430C
:1058A000489B39921A044592A2B24792029A6B0021
:1058B00023FA0BF3D31A429A9A4203D8BBF1000F92
:1058C00000F0B882479B049CCEF83030019B012B3E
:1058D00004BF4B9BCEF83030D7E91A32012A40F290
:1058E000A58207E0CC410700D041070040470620D1
:1058F0000000FF7F013A013B12021B0402F47062B8
:1059000003F4E0231343049A121B18BF012243EA55
:10591000C24343F00043CEF828300D9B012B04D145
:10592000FB680B9A1344CEF810303A6942B1499B98
:10593000019905FA03F35B00CB401344CEF818300D
:10594000002E40F08382119B22995A1E1F9BCDE9A5
:105950003AA6994238BF0022439B159617934FF001
:10596000FF331B965E4604FA0AF802FB0882169380
:10597000419B359204FB03F31F9A219902FB03F22A
:10598000189112920D99409A04FB01F102FB03F366
:1059900001FA0AFC2E932199469BA2B20B44013BCB
:1059A0002393459BCDE93C041343CDF83080079207
:1059B0003693CDF8D0C03E951C99179B239C159D1E
:1059C000994228BF1946A5422B4628BF2346219A53
:1059D0001698934238BF134600F101089C46149173
:1059E000249B0144279803FB0101A14228BF2146C3
:1059F0001446914238BF1146AC4294BF0024189B14
:105A0000A1EB0C0188BF03F03F04299BACEB020221
:105A100043EA8151289B03FB02F23B6FB24044EA08
